:1070000043C000005CC000005AC0000058C000002F
:1070100056C0000054C0000052C0000050C0000024
:107020004EC000004CC000004AC000009FC40000D9
:1070300046C0000044C0000042C00000D5C00000AF
:107040003EC000003CC000003AC0000038C0000054
:1070500036C0000034C0000032C0000030C0000064
:107060002EC000002CC000002AC0000028C0000074
:1070700026C00000003E193EBD3E193EBD3E4E3EBC
:10708000703EBD3E903EA23E11241FBECFEFD4E025
:10709000DEBFCDBF11E0A0E0B1E0E4E0FEE702C05A
:1070A00005900D92A63AB107D9F721E0A6EAB1E022
:1070B00001C01D92AC3BB207E1F767D3A1C6A0CFD8
:1070C00084E08093E9008091E80085FD0EC0809106
:1070D000E8008B778093E8008091E80082FDF3CF91
:1070E0008EB38111F9CF80E008958091F100089569
:1070F00093E09093E9009091E80095FF0AC0809397
:10710000F1005D9884E690E09093AB018093AA0132
:1071100008959091E8009E779093E8009091E800A0
:1071200090FDEDCF9EB39111F9CF0895F894109290
:107130006F0010928100109285001092840081E00F
:1071400085BF15BE5E9A5D9A2C9A8AB18F7C8AB9EA
:107150008BB18F7C8BB90C94000008958091B001A5
:107160009091B10101969093B1018093B001292FC4
:1071700097FF02C02EEF291B220F281710F45E9AEA
:1071800008955E98089584B7877F84BF88E10FB61D
:10719000F89480936000109260000FBE90E080E849
:1071A0000FB6F89480936100909361000FBE81E068
:1071B00085BF92E095BF8AB180638AB98BB1806345
:1071C0008BB9E1E6F0E080E8808310825E9A5D9AF8
:1071D0002C9A109289008AEF8093880090936F0018
:1071E00083E080938100B3C31F920F920FB60F927A
:1071F00011242F938F939F93EF93FF931092850009
:10720000109284008091AA019091AB01009741F007
:1072100001979093AB018093AA01892B09F45D9AA1
:107220008091A8019091A901009741F00197909356
:10723000A9018093A801892B09F42C9AE0E0F0E0E1
:1072400085919491019649F08091A6019091A701B2
:1072500001969093A7018093A601FF91EF919F91D2
:107260008F912F910F900FBE0F901F90189542E0B5
:1072700061EC82E007D342E161E883E003D342E1BD
:1072800060E884E0FFC28091B401982F9F7791322B
:1072900039F59091B501903291F0913209F5813A2A
:1072A000F9F48091E800877F8093E80067E070E060
:1072B00083E091E0EBD38091E8008B770FC08132BF
:1072C00079F48091E800877F8093E80067E070E0C0
:1072D00083E091E038D48091E8008E778093E800D5
:1072E00008954F925F926F927F928F929F92AF928A
:1072F000BF92CF92DF92EF92FF92CF93DF9384E021
:107300008093E9008091E80082FF30C22C9884E6E7
:1073100090E09093A9018093A801D2DED82F853404
:1073200081F48CE49DE19093A7018093A60107B6B8
:1073300000FCFDCFF999FECF81E180935700E895DD
:1073400003C0843521F4BCDE8DE0D2DEE6C18C348E
:10735000D9F38035C9F3843721F484E4C9DE80E0B1
:10736000F4CF813611F489E5F0CF813491F4A8DEB1
:10737000C82FA6DE90E0880F991F2C2F30E0322F07
:107380002227330F822B932BAA2797FDA095BA2F84
:1073900098C1803711F483E5D8CF833549F4CCE91F
:1073A000D1E08991A5DE21E0C33AD207D1F7B5C17A
:1073B000863521F481E39CDE80E3C7CF833731F447
:1073C0008AE896DE85E994DE8EE1BFCF8536B9F492
:1073D000E0E0F0E083E095E080935700E89507B6A1
:1073E00000FCFDCF90935700E89507B600FCFDCF59
:1073F000E058FF4FE11520E7F20771F7A5CF82377C
:1074000019F4E1E0F0E00EC0863419F4E0E0F0E0B9
:1074100009C08E3419F4E3E0F0E004C0813539F49A
:10742000E2E0F0E089E08093570084918ECF8236CD
:1074300031F489E55DDE80E05BDE80E886CF823472
:1074400019F0873609F0D5C01092A7011092A60155
:1074500037DED82E35DEE82E33DEC82F8BEB8C0FCF
:10746000823010F08FE371CFF12CFD2810926F0065
:10747000D73609F045C081E180935700E895570160
:10748000912CD1E0A114B10409F4AFC0C090AC01BB
:10749000D090AD01E090AE01F090AF01C634B9F4E8
:1074A000E92DF0E0EC29FD29849122DE992069F094
:1074B00082E0C80ED11CE11CF11CC092AC01D0923C
:1074C000AD01E092AE01F092AF019D2615C0D7014B
:1074D000C601B695A795979587957CD409DEE2E01D
:1074E000CE0ED11CE11CF11CC092AC01D092AD01BA
:1074F000E092AE01F092AF01F1E0AF1AB108C2CF55
:107500008090AC019090AD01A090AE01B090AF0121
:10751000C63421F0C12CD12CD1E030C083E0F4017D
:1075200080935700E89507B600FCFDCFF3CFC63433
:1075300061F5DD2039F14090AC015090AD016090D3
:10754000AE017090AF01BCDD2C2D30E0382BF20184
:107550000901D0935700E8951124F2E04F0E511C19
:10756000611C711C4092AC015092AD016092AE0161
:107570007092AF01DD2621E0E21AF108E114F10476
:10758000B1F627C09DDDC82EF5CF9ADD682F80911A
:10759000AC019091AD01A091AE01B091AF01B69553
:1075A000A795979587951ED44091AC015091AD0158
:1075B0006091AE017091AF014E5F5F4F6F4F7F4F93
:1075C0004093AC015093AD016093AE017093AF0155
:1075D000D2CFC63441F485E0F40180935700E8959A
:1075E00007B600FCFDCF8DE083DD82E080936F0065
:1075F00094C0833471F4C091AC01D091AD0160DDD1
:1076000090E021E0FE010C0120935700E895112441
:107610009BCE833601F5C090AC01D090AD01E090D7
:10762000AE01F090AF014CDDF601E16090E021E0A9
:107630000C0120935700E8951124F2E0CF0ED11CE5
:10764000E11CF11CC092AC01D092AD01E092AE0100
:10765000F092AF0179CE8D3661F4E091AC01F091FA
:10766000AD0185E080935700E89507B600FCFDCF9B
:107670006BCE823551F4E091AC01F091AD01C59132
:10768000D4918D2F35DD8C2F60CE843419F518DD23
:10769000682F8091AC019091AD01A091AE01B091A5
:1076A000AF01B695A795979587959CD38091AC012E
:1076B0009091AD01A091AE01B091AF010296A11DD4
:1076C000B11D8093AC019093AD01A093AE01B09336
:1076D000AF013ACE8436F1F4C090AC01D090AD0148
:1076E000E090AE01F090AF01D701C601B695A79525
:1076F000979587956FD3FCDC22E0C20ED11CE11C6C
:10770000F11CC092AC01D092AD01E092AE01F092BA
:10771000AF0103C08B3109F0A5CE83E08093E9006F
:107720009091E8008091E8008E778093E80095FDC5
:1077300011C08091E80080FD04C08EB38111F9CFA3
:1077400015C08091E8008E778093E80003C08EB367
:10775000882361F08091E80080FFF9CF84E0809376
:10776000E9008091E8008B778093E800DF91CF916A
:10777000FF90EF90DF90CF90BF90AF909F908F9051
:107780007F906F905F904F9008958091000190914D
:10779000010144B714BE28E10FB6F89420936000AD
:1077A000109260000FBE41FF02C0C0DC18C040FF55
:1077B00007C0E0E0F0E0259134912F3F3F4FA9F75B
:1077C000483069F42091000130910101821793073C
:1077D00031F0E0E0F0E085919491019631F7D3DC4F
:1077E00078941092A7011092A6018091020188233B
:1077F00069F077DDD8D28091A6019091A7018134FC
:107800009F4110F010920201A9DCEFCF8091E000BF
:1078100081608093E0008ADC80E090E00895292F69
:1078200030E02230310539F02330310549F0213084
:10783000310561F410C08EE390E02CE431E01EC00D
:10784000882371F0813089F08230A1F080E090E0EF
:1078500020E030E013C082E190E02AE831E00EC081
:1078600084E090E028E431E009C082E290E024E284
:1078700031E004C088E190E02AE031E0FA01318390
:10788000208308958093E900EBEEF0E08081816031
:107890008083EDEEF0E010826093EC0040838091F5
:1078A000EE00881F8827881F08958091B40187FD06
:1078B00005C08091E80080FF0DC010C08091E800F5
:1078C00082FD04C08EB38111F9CF08958091E80044
:1078D0008B7707C08EB38111ECCF08958091E800BB
:1078E0008E778093E80008953BD03DD08091D800FA
:1078F0008F778093D8008091D80080688093D800DB
:107900008091D8008F7D8093D80019BC82E089BD1A
:1079100009B400FEFDCF1EBA1092B20142E060E051
:1079200080E0B0DF8091E1008E7F8093E100809164
:10793000E20081608093E2008091E20088608093A1
:10794000E2008091E0008E7F8093E0000895E3E6FE
:10795000F0E080818E7F808381E08093B301C4CF8B
:107960001092E20008951092E10008951F920F9284
:107970000FB60F9211242F933F934F935F936F9302
:107980007F938F939F93AF93BF93EF93FF938091D8
:10799000E10080FF16C08091E20080FF12C080915C
:1079A000E2008E7F8093E2008091E200806180930C
:1079B000E2008091D80080628093D80019BC1EBA82
:1079C000F1D18091E10084FF2BC08091E20084FF1F
:1079D00027C019BC82E089BD09B400FEFDCF8091AB
:1079E000D8008F7D8093D8008091E1008F7E8093B6
:1079F000E1008091E2008F7E8093E2008091E200BE
:107A000081608093E2008091B201811104C0809175
:107A1000E30087FF02C084E001C081E08EBBC2D1D9
:107A20008091E10083FF21C08091E20083FF1DC0AF
:107A30008091E100877F8093E10082E08EBB10920D
:107A4000B2018091E1008E7F8093E1008091E2009D
:107A50008E7F8093E2008091E20080618093E2005B
:107A600042E060E080E00EDF9DD1FF91EF91BF9199
:107A7000AF919F918F917F916F915F914F913F91C6
:107A80002F910F900FBE0F901F9018952091BA0163
:107A90003091BB012617370748F06115710539F49D
:107AA0002091E8002E772093E80001C0B90120E082
:107AB00061157105C9F13EB3332309F440C0353077
:107AC00009F43FC03091E80033FD37C03091E80041
:107AD00032FF06C08091E80082FF29C080E008954F
:107AE0003091E80030FFE4CF2091F20030E0FC015B
:107AF000281B390BCF01820F931F6115710549F0C7
:107B00008830910530F481918093F10061507109C2
:107B1000F1CF21E0089709F020E08091E8008E770E
:107B20008093E800CF01C4CF2111C5CFD3CF8EB34E
:107B3000882329F0853071F604C081E0089582E041
:107B4000089583E008956115710529F42091E800F6
:107B50002B772093E8006115710511F12EB32223D4
:107B600041F1253041F12091E80023FD1EC0209114
:107B7000E80022FFF3CFFC01CF012091F200222385
:107B800029F38091F1008193CF0161507109611552
:107B9000710591F7DBCF8EB3882359F0853059F00A
:107BA0008091E80080FFF7CF02C081E0089580E077
:107BB000089582E0089583E008950F931F93CF9373
:107BC000DF9300D0CDB7DEB7E4EBF1E08091F100B8
:107BD000819381E0EC3BF807C9F755DB8091E80021
:107BE00083FFCBC02091B4013091B501832F90E089
:107BF0008A30910508F0C1C0FC01E65CF74CE4C096
:107C0000223809F0BAC08091B80187708093E900EA
:107C10009091EB001092E9008091E800877F8093BB
:107C2000E80095FB882780F98093F1001092F1001D
:107C300082C0822F8D7F09F0A0C0223009F09DC044
:107C40008091B601811124C02091B801277009F4F8
:107C500094C02093E9008091EB0080FF19C08091CF
:107C6000EB00333011F4806211C080618093EB002F
:107C700081E090E0022E01C0880F0A94EAF7809319
:107C8000EA001092EA008091EB0088608093EB009C
:107C90001092E9008091E800877F50C021116DC0EB
:107CA0001091B6011F770FB7F8948091E800877F95
:107CB0008093E800FADD8091E80080FFFCCF80919E
:107CC000E3008078812B8093E30080688093E30059
:107CD000112311F083E001C082E08EBB0FBF4DC0C5
:107CE0002058223008F049C0AE014F5F5F4F6091CD
:107CF000B8018091B6019091B70191DD009709F428
:107D00003CC02091E800277F2093E800BC018981D6
:107D10009A81BCDE8091E8008B778093E8002DC0CB
:107D2000203859F58091E800877F8093E8008091A2
:107D3000B2018093F1008091E8008E778093E80093
:107D4000B4DD1BC0211119C09091B6019230A8F486
:107D50008091E800877F8093E8009093B201A5DDD1
:107D60008091B201811104C08091E30087FF02C0BD
:107D700084E001C081E08EBB7ADA8091E80083FF65
:107D80000AC08091EB0080628093EB008091E80054
:107D9000877F8093E8000F900F90DF91CF911F9124
:107DA0000F9108950895CF938EB3882359F0C09111
:107DB000E900C7701092E9008091E80083FDFDDEC4
:107DC000C093E900CF910895EE0FFF1F0590F49145
:107DD000E02D0994F999FECF92BD81BDF89A9927BB
:107DE00080B50895262FF999FECF1FBA92BD81BDA7
:107DF00020BD0FB6F894FA9AF99A0FBE019608952D
:047E0000F894FFCF24
:107E040077770100000000000008180355006E0099
:107E14006B006E006F0077006E00200020002000D1
:107E24002000000022034D0069006E0069006D000F
:107E34007500730020003300320020002000200071
:107E440020002000200000000403090409023E0071
:107E5400020100803209040000010202010005242D
:107E6400001001042402040524060001070582030E
:107E74000800FF09040100020A00000007050402CB
:107E84001000010705830210000112011001020015
:107E9400000841233600010002010001434154451A
:067EA40052494E410000AE
:040000030000700089
:00000001FF
